{
  "contractName": "Ewaste",
  "abi": [
    {
      "constant": true,
      "inputs": [],
      "name": "P_ID",
      "outputs": [
        {
          "internalType": "uint256",
          "name": "",
          "type": "uint256"
        }
      ],
      "payable": false,
      "stateMutability": "view",
      "type": "function"
    },
    {
      "constant": true,
      "inputs": [
        {
          "internalType": "uint256",
          "name": "",
          "type": "uint256"
        }
      ],
      "name": "Product",
      "outputs": [
        {
          "internalType": "string",
          "name": "productName",
          "type": "string"
        },
        {
          "internalType": "string",
          "name": "category",
          "type": "string"
        },
        {
          "internalType": "string",
          "name": "description",
          "type": "string"
        },
        {
          "internalType": "uint256",
          "name": "manufactureId",
          "type": "uint256"
        },
        {
          "internalType": "uint256",
          "name": "price",
          "type": "uint256"
        },
        {
          "internalType": "uint256",
          "name": "recyclerID",
          "type": "uint256"
        },
        {
          "internalType": "bool",
          "name": "status",
          "type": "bool"
        }
      ],
      "payable": false,
      "stateMutability": "view",
      "type": "function"
    },
    {
      "constant": true,
      "inputs": [],
      "name": "U_ID",
      "outputs": [
        {
          "internalType": "uint256",
          "name": "",
          "type": "uint256"
        }
      ],
      "payable": false,
      "stateMutability": "view",
      "type": "function"
    },
    {
      "constant": true,
      "inputs": [
        {
          "internalType": "uint256",
          "name": "",
          "type": "uint256"
        }
      ],
      "name": "User",
      "outputs": [
        {
          "internalType": "address payable",
          "name": "userAddress",
          "type": "address"
        },
        {
          "internalType": "string",
          "name": "userName",
          "type": "string"
        },
        {
          "internalType": "string",
          "name": "contactAddress",
          "type": "string"
        },
        {
          "internalType": "uint256",
          "name": "accountType",
          "type": "uint256"
        }
      ],
      "payable": false,
      "stateMutability": "view",
      "type": "function"
    },
    {
      "constant": true,
      "inputs": [
        {
          "internalType": "address",
          "name": "",
          "type": "address"
        }
      ],
      "name": "UserID",
      "outputs": [
        {
          "internalType": "uint256",
          "name": "",
          "type": "uint256"
        }
      ],
      "payable": false,
      "stateMutability": "view",
      "type": "function"
    },
    {
      "constant": false,
      "inputs": [
        {
          "internalType": "string",
          "name": "userName",
          "type": "string"
        },
        {
          "internalType": "string",
          "name": "contactAddress",
          "type": "string"
        },
        {
          "internalType": "uint256",
          "name": "accountType",
          "type": "uint256"
        }
      ],
      "name": "Registration",
      "outputs": [],
      "payable": false,
      "stateMutability": "nonpayable",
      "type": "function"
    },
    {
      "constant": false,
      "inputs": [
        {
          "internalType": "string",
          "name": "_name",
          "type": "string"
        },
        {
          "internalType": "string",
          "name": "_category",
          "type": "string"
        },
        {
          "internalType": "string",
          "name": "_description",
          "type": "string"
        },
        {
          "internalType": "uint256",
          "name": "_price",
          "type": "uint256"
        }
      ],
      "name": "CreateProduct",
      "outputs": [],
      "payable": false,
      "stateMutability": "nonpayable",
      "type": "function"
    },
    {
      "constant": false,
      "inputs": [
        {
          "internalType": "uint256",
          "name": "_P_ID",
          "type": "uint256"
        }
      ],
      "name": "SortRecycler",
      "outputs": [],
      "payable": false,
      "stateMutability": "nonpayable",
      "type": "function"
    },
    {
      "constant": false,
      "inputs": [
        {
          "internalType": "uint256",
          "name": "_P_ID",
          "type": "uint256"
        }
      ],
      "name": "BuyProduct",
      "outputs": [],
      "payable": true,
      "stateMutability": "payable",
      "type": "function"
    }
  ],
  "bytecode": "0x60806040526103e86000556001805534801561001a57600080fd5b506118a38061002a6000396000f3fe6080604052600436106100865760003560e01c8063881898581161005957806388189858146103ea578063b097b90a14610553578063d95c7aa4146105b8578063e06c2812146105f3578063fb9aace11461061e57610086565b80633fbb468a1461008b57806344bb3288146101e557806358d92980146102105780637af110631461023e575b600080fd5b34801561009757600080fd5b506100c4600480360360208110156100ae57600080fd5b8101908080359060200190929190505050610758565b604051808573ffffffffffffffffffffffffffffffffffffffff1673ffffffffffffffffffffffffffffffffffffffff1681526020018060200180602001848152602001838103835286818151815260200191508051906020019080838360005b83811015610140578082015181840152602081019050610125565b50505050905090810190601f16801561016d5780820380516001836020036101000a031916815260200191505b50838103825285818151815260200191508051906020019080838360005b838110156101a657808201518184015260208101905061018b565b50505050905090810190601f1680156101d35780820380516001836020036101000a031916815260200191505b50965050505050505060405180910390f35b3480156101f157600080fd5b506101fa6108d8565b6040518082815260200191505060405180910390f35b61023c6004803603602081101561022657600080fd5b81019080803590602001909291905050506108de565b005b34801561024a57600080fd5b506102776004803603602081101561026157600080fd5b8101908080359060200190929190505050610d40565b604051808060200180602001806020018881526020018781526020018681526020018515151515815260200184810384528b818151815260200191508051906020019080838360005b838110156102db5780820151818401526020810190506102c0565b50505050905090810190601f1680156103085780820380516001836020036101000a031916815260200191505b5084810383528a818151815260200191508051906020019080838360005b83811015610341578082015181840152602081019050610326565b50505050905090810190601f16801561036e5780820380516001836020036101000a031916815260200191505b50848103825289818151815260200191508051906020019080838360005b838110156103a757808201518184015260208101905061038c565b50505050905090810190601f1680156103d45780820380516001836020036101000a031916815260200191505b509a505050505050505050505060405180910390f35b3480156103f657600080fd5b506105516004803603606081101561040d57600080fd5b810190808035906020019064010000000081111561042a57600080fd5b82018360208201111561043c57600080fd5b8035906020019184600183028401116401000000008311171561045e57600080fd5b91908080601f016020809104026020016040519081016040528093929190818152602001838380828437600081840152601f19601f820116905080830192505050505050509192919290803590602001906401000000008111156104c157600080fd5b8201836020820111156104d357600080fd5b803590602001918460018302840111640100000000831117156104f557600080fd5b91908080601f016020809104026020016040519081016040528093929190818152602001838380828437600081840152601f19601f82011690508083019250505050505050919291929080359060200190929190505050610f57565b005b34801561055f57600080fd5b506105a26004803603602081101561057657600080fd5b81019080803573ffffffffffffffffffffffffffffffffffffffff1690602001909291905050506111b3565b6040518082815260200191505060405180910390f35b3480156105c457600080fd5b506105f1600480360360208110156105db57600080fd5b81019080803590602001909291905050506111cb565b005b3480156105ff57600080fd5b5061060861148f565b6040518082815260200191505060405180910390f35b34801561062a57600080fd5b506107566004803603608081101561064157600080fd5b810190808035906020019064010000000081111561065e57600080fd5b82018360208201111561067057600080fd5b8035906020019184600183028401116401000000008311171561069257600080fd5b9091929391929390803590602001906401000000008111156106b357600080fd5b8201836020820111156106c557600080fd5b803590602001918460018302840111640100000000831117156106e757600080fd5b90919293919293908035906020019064010000000081111561070857600080fd5b82018360208201111561071a57600080fd5b8035906020019184600183028401116401000000008311171561073c57600080fd5b909192939192939080359060200190929190505050611495565b005b60036020528060005260406000206000915090508060000160009054906101000a900473ffffffffffffffffffffffffffffffffffffffff1690806001018054600181600116156101000203166002900480601f01602080910402602001604051908101604052809291908181526020018280546001816001161561010002031660029004801561082a5780601f106107ff5761010080835404028352916020019161082a565b820191906000526020600020905b81548152906001019060200180831161080d57829003601f168201915b505050505090806002018054600181600116156101000203166002900480601f0160208091040260200160405190810160405280929190818152602001828054600181600116156101000203166002900480156108c85780601f1061089d576101008083540402835291602001916108c8565b820191906000526020600020905b8154815290600101906020018083116108ab57829003601f168201915b5050505050908060030154905084565b60005481565b3373ffffffffffffffffffffffffffffffffffffffff1660036000600460003373ffffffffffffffffffffffffffffffffffffffff1673ffffffffffffffffffffffffffffffffffffffff16815260200190815260200160002054815260200190815260200160002060000160009054906101000a900473ffffffffffffffffffffffffffffffffffffffff1673ffffffffffffffffffffffffffffffffffffffff161480156109e35750600160036000600460003373ffffffffffffffffffffffffffffffffffffffff1673ffffffffffffffffffffffffffffffffffffffff16815260200190815260200160002054815260200190815260200160002060030154145b610a55576040517f08c379a00000000000000000000000000000000000000000000000000000000081526004018080602001828103825260108152602001807f6f6e6c79204d616e75666163747572650000000000000000000000000000000081525060200191505060405180910390fd5b80600460003373ffffffffffffffffffffffffffffffffffffffff1673ffffffffffffffffffffffffffffffffffffffff16815260200190815260200160002054600260008381526020019081526020016000206003015414610b20576040517f08c379a00000000000000000000000000000000000000000000000000000000081526004018080602001828103825260148152602001807f697473204e6f7420796f75722050726f6475637400000000000000000000000081525060200191505060405180910390fd5b600015156002600083815260200190815260200160002060060160009054906101000a900460ff16151514610bbd576040517f08c379a000000000000000000000000000000000000000000000000000000000815260040180806020018281038252600b8152602001807f4e6f74206120576173746500000000000000000000000000000000000000000081525060200191505060405180910390fd5b34600260008481526020019081526020016000206004015414610c48576040517f08c379a000000000000000000000000000000000000000000000000000000000815260040180806020018281038252600e8152602001807f496e636f7272657420507269636500000000000000000000000000000000000081525060200191505060405180910390fd5b600360006002600085815260200190815260200160002060050154815260200190815260200160002060000160009054906101000a900473ffffffffffffffffffffffffffffffffffffffff1673ffffffffffffffffffffffffffffffffffffffff166108fc60026000858152602001908152602001600020600401549081150290604051600060405180830381858888f19350505050158015610cf0573d6000803e3d6000fd5b506000600260008481526020019081526020016000206005018190555060016002600084815260200190815260200160002060060160006101000a81548160ff0219169083151502179055505050565b6002602052806000526040600020600091509050806000018054600181600116156101000203166002900480601f016020809104026020016040519081016040528092919081815260200182805460018160011615610100020316600290048015610dec5780601f10610dc157610100808354040283529160200191610dec565b820191906000526020600020905b815481529060010190602001808311610dcf57829003601f168201915b505050505090806001018054600181600116156101000203166002900480601f016020809104026020016040519081016040528092919081815260200182805460018160011615610100020316600290048015610e8a5780601f10610e5f57610100808354040283529160200191610e8a565b820191906000526020600020905b815481529060010190602001808311610e6d57829003601f168201915b505050505090806002018054600181600116156101000203166002900480601f016020809104026020016040519081016040528092919081815260200182805460018160011615610100020316600290048015610f285780601f10610efd57610100808354040283529160200191610f28565b820191906000526020600020905b815481529060010190602001808311610f0b57829003601f168201915b5050505050908060030154908060040154908060050154908060060160009054906101000a900460ff16905087565b6000600460003373ffffffffffffffffffffffffffffffffffffffff1673ffffffffffffffffffffffffffffffffffffffff168152602001908152602001600020541461100c576040517f08c379a00000000000000000000000000000000000000000000000000000000081526004018080602001828103825260168152602001807f5573657220416c7265616479205265676973747265640000000000000000000081525060200191505060405180910390fd5b600181148061101b5750600281145b61108d576040517f08c379a00000000000000000000000000000000000000000000000000000000081526004018080602001828103825260148152602001807f20496e76616c6964206163636f756e745479706500000000000000000000000081525060200191505060405180910390fd5b33600360008054815260200190815260200160002060000160006101000a81548173ffffffffffffffffffffffffffffffffffffffff021916908373ffffffffffffffffffffffffffffffffffffffff160217905550826003600080548152602001908152602001600020600101908051906020019061110e929190611749565b50816003600080548152602001908152602001600020600201908051906020019061113a929190611749565b5080600360008054815260200190815260200160002060030181905550600054600460003373ffffffffffffffffffffffffffffffffffffffff1673ffffffffffffffffffffffffffffffffffffffff168152602001908152602001600020819055506000808154809291906001019190505550505050565b60046020528060005260406000206000915090505481565b3373ffffffffffffffffffffffffffffffffffffffff1660036000600460003373ffffffffffffffffffffffffffffffffffffffff1673ffffffffffffffffffffffffffffffffffffffff16815260200190815260200160002054815260200190815260200160002060000160009054906101000a900473ffffffffffffffffffffffffffffffffffffffff1673ffffffffffffffffffffffffffffffffffffffff161480156112d05750600260036000600460003373ffffffffffffffffffffffffffffffffffffffff1673ffffffffffffffffffffffffffffffffffffffff16815260200190815260200160002054815260200190815260200160002060030154145b611342576040517f08c379a000000000000000000000000000000000000000000000000000000000815260040180806020018281038252600d8152602001807f6f6e6c792052656379636c65720000000000000000000000000000000000000081525060200191505060405180910390fd5b80600060026000838152602001908152602001600020600501541480156113905750600115156002600083815260200190815260200160002060060160009054906101000a900460ff161515145b611402576040517f08c379a00000000000000000000000000000000000000000000000000000000081526004018080602001828103825260198152602001807f52656379636c657220416c726561647920417369676e6564200000000000000081525060200191505060405180910390fd5b600460003373ffffffffffffffffffffffffffffffffffffffff1673ffffffffffffffffffffffffffffffffffffffff16815260200190815260200160002054600260008481526020019081526020016000206005018190555060006002600084815260200190815260200160002060060160006101000a81548160ff0219169083151502179055505050565b60015481565b3373ffffffffffffffffffffffffffffffffffffffff1660036000600460003373ffffffffffffffffffffffffffffffffffffffff1673ffffffffffffffffffffffffffffffffffffffff16815260200190815260200160002054815260200190815260200160002060000160009054906101000a900473ffffffffffffffffffffffffffffffffffffffff1673ffffffffffffffffffffffffffffffffffffffff1614801561159a5750600160036000600460003373ffffffffffffffffffffffffffffffffffffffff1673ffffffffffffffffffffffffffffffffffffffff16815260200190815260200160002054815260200190815260200160002060030154145b61160c576040517f08c379a00000000000000000000000000000000000000000000000000000000081526004018080602001828103825260108152602001807f6f6e6c79204d616e75666163747572650000000000000000000000000000000081525060200191505060405180910390fd5b600460003373ffffffffffffffffffffffffffffffffffffffff1673ffffffffffffffffffffffffffffffffffffffff16815260200190815260200160002054600260006001548152602001908152602001600020600301819055508686600260006001548152602001908152602001600020600001919061168f9291906117c9565b50848460026000600154815260200190815260200160002060010191906116b79291906117c9565b50828260026000600154815260200190815260200160002060020191906116df9291906117c9565b508060026000600154815260200190815260200160002060040181905550600160026000600154815260200190815260200160002060060160006101000a81548160ff02191690831515021790555060016000815480929190600101919050555050505050505050565b828054600181600116156101000203166002900490600052602060002090601f016020900481019282601f1061178a57805160ff19168380011785556117b8565b828001600101855582156117b8579182015b828111156117b757825182559160200191906001019061179c565b5b5090506117c59190611849565b5090565b828054600181600116156101000203166002900490600052602060002090601f016020900481019282601f1061180a57803560ff1916838001178555611838565b82800160010185558215611838579182015b8281111561183757823582559160200191906001019061181c565b5b5090506118459190611849565b5090565b61186b91905b8082111561186757600081600090555060010161184f565b5090565b9056fea265627a7a7231582030c3ef222c67c1192628663d0b430f55f93fe908fe45ab4b85188b833edcae6064736f6c63430005100032",
  "source": "pragma solidity ^0.5.16;\ncontract Ewaste{\n// Variables\nuint public U_ID = 1000;\nuint public P_ID = 1;\n// Structs\nstruct Products{\n  string productName;\n  string category;\n  string description;\n  uint manufactureId;\n  uint price;\n  uint recyclerID;\n  bool status;\n}\nstruct Users{\n address payable userAddress;\n string userName;\n string contactAddress;\n uint accountType;\n//  uint MyProducts;\n}\n// Mappings\nmapping(uint => Products)public Product;\nmapping(uint => Users) public User;\nmapping (address => uint) public UserID;\n//Modifiers\nmodifier onlyMan() {\n  require(User[UserID[msg.sender]].userAddress == msg.sender && User[UserID[msg.sender]].accountType == 1,'only Manufacture');\n  _;\n}\nmodifier onlyRec() {\n  require(User[UserID[msg.sender]].userAddress == msg.sender && User[UserID[msg.sender]].accountType == 2,'only Recycler');\n  _;\n}\nmodifier recycler(uint pID) {\n  require(Product[pID].recyclerID == 0 && Product[pID].status == true,'Recycler Already Asigned ');\n  _;\n}\nmodifier buyProduct(uint pID) {\n  require(Product[pID].manufactureId == UserID[msg.sender],'its Not your Product');\n  require(Product[pID].status == false,'Not a Waste');\n  _;\n}\n//Functons\nfunction Registration (string memory userName,string memory contactAddress,uint accountType) public{\n    require(UserID[msg.sender]==0,'User Already Registred');\n    require(accountType == 1 || accountType == 2 , ' Invalid accountType');\n  User[U_ID].userAddress = msg.sender;\n  User[U_ID].userName = userName;\n  User[U_ID].contactAddress = contactAddress;\n  User[U_ID].accountType = accountType;\n  UserID[msg.sender] = U_ID;\n  U_ID++;\n}\nfunction CreateProduct (string calldata _name,string calldata _category,string calldata _description,uint _price) external onlyMan() {\n  Product[P_ID].manufactureId = UserID[msg.sender];\n  Product[P_ID].productName = _name;\n  Product[P_ID].category = _category;\n  Product[P_ID].description = _description;\n  Product[P_ID].price = _price;\n  Product[P_ID].status = true;\n  P_ID++;\n} \nfunction SortRecycler(uint _P_ID) public onlyRec() recycler(_P_ID)  {\n  Product[_P_ID].recyclerID = UserID[msg.sender];\n  Product[_P_ID].status = false;\n}\nfunction BuyProduct(uint _P_ID) public payable onlyMan() buyProduct(_P_ID){\n  require(Product[_P_ID].price == msg.value,'Incorret Price');\n  User[Product[_P_ID].recyclerID].userAddress.transfer(Product[_P_ID].price);\n  Product[_P_ID].recyclerID = 0;\n  Product[_P_ID].status = true;\n}\n}",
  "sourcePath": "/home/denny/Code/Samples/Ewaste/E-WASTE-MANAGEMENT-ETHEREUM/ewaste-eth/contracts/Ewaste.sol",
  "compiler": {
    "name": "solc",
    "version": "0.5.16+commit.9c3226ce.Emscripten.clang"
  },
  "schemaVersion": "3.0.20",
  "updatedAt": "2020-01-14T07:38:00.876Z",
  "networkType": "ethereum",
  "devdoc": {
    "methods": {}
  },
  "userdoc": {
    "methods": {}
  }
}